:020000040000fa
:020000040040ba
:10000000f8ff45204d044000db0d40002310400068
:10001000f1104000f3104000f51040000000000017
:10002000000000000000000000000000f910400087
:10003000cb10400000000000f9104000f910400013
:10004000f9104000f9104000f9104000f91040008c
:10005000f9104000f9104000f9104000f91040007c
:10006000f910400000000000f9104000f9104000b5
:10007000f9104000f9104000c50b4000f910400095
:10008000f9104000f9104000f9104000f91040004c
:10009000f9104000c5054000f9104000f91040007b
:1000a000f9104000f9104000f9104000f91040002c
:1000b000f9104000f9104000f9104000f91040001c
:1000c000f9104000f9104000f9104000f91040000c
:1000d000f9104000f9104000f9104000f9104000fc
:1000e000f9104000f9104000f9104000f9104000ec
:1000f000f9104000f9104000f9104000f9104000dc
:10010000f9104000f9104000f9104000f9104000cb
:10011000f910400000000000000000000000000096
:10012000f9104000f9104000f9104000f9104000ab
:10013000f9104000f910400000000000f9104000e4
:10014000f9104000f9104000f9104000f91040008b
:10015000f9104000f9104000f9104000f91040007b
:08016000f9104000f910400005
:020000040000fa
:020000040040ba
:10016800f8b500bff8bc08bc9e467047910e400029
:10017800f8b500bff8bc08bc9e4670476d0e40003d
:020000040000fa
:020000040040ba
:08018800080000000100000066
:020000040000fa
:020000040040ba
:100190002de9f04f099f154604468e461e46002b5a
:1001a00040f0cc808a42b2fa82fc4cd9bcf1000ffc
:1001b0000bd0ccf1200801fa0cfe20fa08f802fa64
:1001c0000cf548ea0e0e00fa0cf44fea15491ffa36
:1001d00085f8befbf9fa210c09fb1ae30afb08fbc0
:1001e00041ea03439b452ad9eb180af1ff3004d2b8
:1001f0009b4502d9aaf102002b44a3eb0b03a4b246
:10020000b3fbf9f209fb123302fb08f844ea03449a
:10021000a04516d92c1902f1ff3303d2a04501d90c
:10022000931e2c44a4eb080443ea004027b124faaf
:100230000cf400233c607b603146bde8f08f5046f3
:10024000dbe71346eee702b9ffdebcf1000f2ed16b
:100250008b1a01264fea154eaab2b3fbfef8210c09
:100260000efb183308fb02f941ea0343994561d9b3
:10027000eb1808f1ff3004d2994502d9a8f1020029
:100280002b44a3eb0903a4b2b3fbfef10efb113325
:100290004a4344ea0344a2424ed92c1901f1ff33e8
:1002a00003d2a24201d98b1e2c44a41abce7ccf184
:1002b000200e02fa0cf521fa0ef901fa0cf320fadd
:1002c0000efe4eea03034fea154800fa0cf4b9fba0
:1002d000f8f11ffa85fe08fb1192180c01fb0ef6cf
:1002e00040ea0242964221d9aa1801f1ff3003d216
:1002f000964201d9881e2a44921b9bb2b2fbf8f9a0
:1003000008fb192209fb0efe43ea02439e450fd962
:10031000eb1809f1ff3604d29e4502d9a9f1020675
:100320002b44a3eb0e0346ea004693e70846e3e7b7
:100330004e46f6e74046a4e70b46b6e78b4206d9a1
:10034000002f7ed00026c7e90001304674e7b3fadb
:1003500083fcbcf1000f0fd18b4201d3824209d83c
:10036000841a61eb030e0120002f6dd0c7e9004e07
:10037000002661e76046f7e7ccf1200e03fa0cf3a4
:1003800022fa0ef521fa0ef41d4301fa0cf320fabd
:100390000ef10b434fea154a00fa0cf6b4fbfaf9da
:1003a0001ffa85f80afb19401c0c09fb08f144ea06
:1003b0000044a14202fa0cf23fd92c1909f1ff3096
:1003c00004d2a14202d9a9f102002c44641a9bb2c2
:1003d000b4fbfaf90afb194409fb08f843ea0441a3
:1003e00088452cd9691809f1ff3304d2884502d910
:1003f000a9f10203294443ea0040a1eb0801a0fb54
:1004000002894945c2464c4602d306d1464504d22c
:10041000b8eb020a69eb05040138afb1b6eb0a0389
:1004200061eb040606fa0efe23fa0cf34eea030310
:1004300026fa0cf6c7e900369ae74846c6e74b4667
:0c044000d9e73e463846f7e63e46f5e6b2
:020000040000fa
:020000040040ba
:10044c0008b54f4b98474f4b9847eff3108172b656
:10045c004d4ad2f8883043f47003c2f88830bff3a9
:10046c004f8fbff36f8f01b962b6484b484a5a6041
:10047c009a6812f0010ffbd0444bdb6813f4c07f79
:10048c0013d0444b0c221a60404b434a5a609a6872
:10049c0012f0010ffbd03d4b404a5a609a6812f0a3
:1004ac00010ffbd03e4b3f4a1a60bff34f8fbff397
:1004bc006f8f354cd4f8903223f00103c4f890328e
:1004cc00d4f8943223f00103c4f89432bff34f8f65
:1004dc00bff36f8f00f002fd334b23f07f03a3605b
:1004ec00324b9847636913f4003f12d1bff34f8f1f
:1004fc00bff36f8f0022c4f85022bff34f8fbff3ae
:10050c006f8f626942f400326261bff34f8fbff3a9
:10051c006f8f1d4b5b6913f4803f29d11a4b00225e
:10052c00c3f88420bff34f8fd3f88030c3f3c906d0
:10053c00c3f34e335a0143f6e075134802ea05043f
:10054c00334644ea8371c0f86012013bb3f1ff3fbc
:10055c00f7d1203a12f1200ff0d1bff34f8f0a4a96
:10056c00536943f480335361bff34f8fbff36f8fe5
:10057c000f4b98470f4b984700f000fafee700bf6f
:10058c00f7104000f710400000ed00e0000c0e40aa
:10059c000d00005acc0040200c08005a0c07005ae1
:1005ac0000180e40010000a500004000e50c4000c2
:0805bc00f7104000f7104000a9
:020000040000fa
:020000040040ba
:1005c40008b54c4b196b01f0f0014b4a52691b6999
:1005d40013f0010f0dd0474b9868474bdb689342eb
:1005e40005d9002939d1444b5b6898540132424bf8
:1005f4005a61404b1b6913f0020f1dd03d4b022082
:1006040098613d4b9b69002939d13b4989689942de
:1006140029d939490968c85c3649c8600133364963
:1006240088680969834201d1002941d03249c968e7
:10063400914241d030498b61304b1b7863b12d4bd3
:100644001b6913f4007f03d02b4bdb68934239d032
:10065400284b4ff400725a6108bd274b5b6823f89e
:1006640012000132c3e7244909690029d7d021497e
:10067400ff20c8602048016901390161cfe71e49a4
:100684008968994207d91c49096831f81300194946
:10069400c8600133c3e7184909690029bfd0154967
:1006a4004ff6ff70c8601448016901390161b6e76b
:1006b400124901200870bde70e490120886102201b
:1006c4004861b7e70b494ff080730b600a4b002277
:1006d4001a7740f20320886108490a701b6a002bcc
:1006e400bad0054b586a1b6a9847044b1b78002bf9
:1006f400aed1b1e70080004084004020d800402003
:020000040000fa
:020000040040ba
:1007040030b4464c247f002c40f0858005460029f7
:1007140032d0002830d04148056042600024446152
:10072400846104613d488160002a3bd03b4ad36028
:100734003a4a012111773a4989689168d2688a4214
:1007440003d93648c268521a0261354a126b12f054
:10075400f00f37d1314a92698a4227d22f4a116861
:1007640008782f49c860916901319161002b4dd0ff
:1007740001202b4b58614fe0141c18bf0124002b9f
:1007840014bf20460020002846d02448056042605b
:100794000024446184610461002dc3d11f4a0021f7
:1007a4009160c3e71d4a0021d160c1e71b4a126969
:1007b400002adbd01a4aff21d16018490a69013a9c
:1007c4000a61d3e7154a916849089160116949089b
:1007d4001161d1684908d160916892698a4208d24e
:1007e4000e4a116808880e49c86091690131916107
:1007f400bce70a4a1269002ab8d0094a4ff6ff71c9
:10080400d16006490a69013a0a61afe7044b022242
:100814005a61012000e0002030bc70478400402071
:040824000080004010
:020000040000fa
:020000040040ba
:10082800314b0022c3f81421d3f8141141f0100100
:10083800c3f814112d494ff400134b606ff40013e3
:100848000b604ff0ff334b650b66c1f89030c1f871
:10085800a0300a614b618a63c1f8182101f5007163
:1008680014200867486748606ff0140008604b65fb
:100878000b66c1f89030c1f8a0300a614b618a63f9
:10088800c1f8182101f500710b604b650b66c1f8c2
:100898009030c1f8a0300a614b618a63c1f8182111
:1008a80001f500714ff4e00008674a6748606ff48b
:1008b800e00008604b650b66c1f89030c1f8a030c5
:1008c8000a614b618a63c1f8182101f500710b6058
:1008d8004b650b66c1f89030c1f8a0300a614b61d6
:1008e8008a63c1f81821704700800840000e0e4046
:020000040000fa
:020000040040ba
:1008f800b00040201c00000000000000d80040208c
:100908000100000000000000840040202c000000ce
:1009180000000000500040203400000000000000eb
:10092800cc0040200400000000000000d900402056
:100938000100000000000000dc004020040000006e
:100948000100000080d1f008d00040200400000021
:1009580000000000000040205000000000000000df
:10096800d400402004000000000000000000000047
:1009780000000000666666666666666666666666a7
:020000040000fa
:020000040040ba
:1009880080b582b0002000f023fb174800f054fb2c
:10099800164800f075f9164c164f174e174d02e021
:1009a800284600f049fb40f6b83000f053fb2046db
:1009b80000f042fb0023019304210deb010000f03d
:1009c800e2f960b1304600f037fb04210deb01007d
:1009d80000f0b2f900f07efb0028fbd1e0e73846d2
:1009e80000f02afbdfe700bfdc0d400000a3e111a7
:1009f800fc0d4000180e4000080e4000140e400088
:020000040000fa
:020000040040ba
:100a0800002830d010b40446194b1b7d002b2cd184
:100a1800174b1860596000229a6001221a755868ad
:100a28009b68144a526912f0020f13d0984211d9e8
:100a380010494a6812f4003f14bf34f81320e25cee
:100a4800c2f30802ca6101334a6912f0020f01d0e9
:100a58009842eed8064a9360064b02229a6001201b
:100a68005df8044b7047002070470020f8e700bf8e
:080a7800500040200080024004
:020000040000fa
:020000040040ba
:100a800038b51a4b1c681d681b7d002b2cd0174bea
:100a900058689b68164a526912f0020f13d09842a8
:100aa00011d913494a6812f4003f14bf35f81320d6
:100ab000e25cc2f30802ca6101334a6912f0020f14
:100ac00001d09842eed8094a9360936883420bd3d1
:100ad000134600221a75064a0221d160db681bb159
:100ae000024b1869db68984738bd00bf50004020b2
:040af0000080024040
:020000040000fa
:020000040040ba
:100af400164b174a9a629a6e12f0020ffbd0134af1
:100b0400136b23f07003136313469a6e12f0080fed
:100b1400fbd00e4a136b23f4407343f480731363c6
:100b240013469a6e12f0080ffbd0084a136b23f099
:100b3400030343f00203136313469a6e12f0080f83
:100b4400fbd0024b034a1a61704700bf00060e40f7
:080b5400013f1820005c2300a2
:020000040000fa
:020000040040ba
:100b5c0070b5174b9d699e6993f82c303bb3144bc1
:100b6c00dc691b6a13494a6912f0010f0dd09c42d3
:100b7c000bd98a69c2f30802486810f4003f14bf0d
:100b8c0026f81320ea540133ede7094a1362136a7d
:100b9c00a3420cd31346002283f82c20054ae121f2
:100bac00d1605b6a1bb1024b986a5b6a984770bd57
:080bbc005000402000800240bf
:020000040000fa
:020000040040ba
:100bc40010b5164b5b6913f0e0030fd1134b5b694f
:100bd40013f0010f1bd1114b5b6913f0020f04d00a
:100be4000e4b1b6913f0020f14d110bd0c4c236380
:100bf40000f0daf9094be122da60002384f82c30a2
:100c0400636a002be2d0a06a636a9847dee7fff7c5
:100c1400a3ffe0e7fff732ffe7e700bf00800240f1
:040c2400500040201c
:020000040000fa
:020000040040ba
:100c2800144bd96821f4e0610904090c124a0a43fb
:100c3800da60bff35f8f62b6104ae02182f80e13c4
:100c48004ff48040106082f815134ff400111160c2
:100c58005a6a42f480225a625a6942f010025a6172
:100c68005a6a42f400325a625a6a42f480325a622c
:100c7800704700bf00ed00e00000fa0500e100e069
:020000040000fa
:020000040040ba
:100c8800034608b9114b1b68104a1360104ad36811
:100c980043f08073d3600f4b1b6813f0007f12d1b1
:100ca8000c4b00225a601a6842f001021a605a6816
:100cb80000bf00bf00bf00bf5b68d31a18bf012385
:100cc800054a137070470023fae700bfdc00402094
:0c0cd800f0ed00e0001000e0d90040202a
:020000040000fa
:020000040040ba
:100ce4000e4a38b5002313600d4a0e4c13600e4aa9
:100cf4000e4d13600e4a13600e4a13600e4a53627f
:100d040013610123936000f0f7f900f0f5f9ac42a8
:100d140000d338bd54f8043b9847f8e7d40040208a
:100d24000c0040207401400008004020780140007d
:0c0d34000000402004004020100040207f
:020000040000fa
:020000040040ba
:100d400021b370b582b0441e0844451e202614f815
:100d5000013f1a09092a94bf303237328df8042036
:100d600003f00f03092b94bf303337338df8053070
:100d70008df8066000f0b2f90028fbd1032101a82c
:0e0d8000fff742feac42e2d102b070bd7047f8
:020000040000fa
:020000040040ba
:100d8e002de9f04190b0f1b10e4607460d462c46c6
:100d9e00402d28bf40242246ff21684600f07bf9f3
:100dae00721b23463a4421466846fff7a4fc804650
:100dbe0028b100f030f90028fbd12d1be7d14046b9
:0c0dce0010b0bde8f0814ff00108f8e71c
:020000040000fa
:020000040040ba
:020dda00fee732
:020000040000fa
:020000040040ba
:100ddc000a4053414d453730205350492d3e554123
:100dec00525420776974682072622e630d000000e3
:100dfc000a64656c61792033730d0a005244204fec
:100e0c004b2c2052583a20000d0a00005244204628
:080e1c0041494c0d0a0000bf22
:020000040000fa
:020000040040ba
:100e2400d0b12de9f8430446dff83490dff834807c
:100e34000a4e002725464c4528bf4d46d8f80000e9
:100e440032463b46a0fb050100f080f800f066f84e
:100e5400641befd1bde8f883704700bf40420f0028
:080e640020a10700dc00402082
:020000040000fa
:020000040040ba
:100e6c0010b5054c227832b9044b13b10448aff3da
:100e7c0000800123237010bdb00040200000000052
:100e8c000000000008b5034b1bb103490348aff346
:100e9c00008008bd00000000b400402000000000ed
:020000040000fa
:020000040040ba
:100eac000c4b4ff486721a6050221a604ff40c628d
:100ebc005a6051221a62084b00229a61da611a6256
:100ecc0083f82c205a621a605a609a601a75da609c
:0c0edc001a637047008002405000402064
:020000040000fa
:020000040040ba
:100ee80070b50b480b4d4ff6ff76016821b9436882
:100ef80013b900f0fef870bd83684268334000f112
:100f08000c0455f823302046984704eb8000ece7a2
:080f1800f808400090104000b1
:020000040000fa
:020000040040ba
:100f2000034640b1084a127832b9013800bf01388f
:100f3000b0f1ff3ffad17047044a506811464a6841
:100f4000121a9a42fbd37047d9004020001000e0eb
:020000040000fa
:020000040040ba
:100f500053b94ab9002908bf00281cbf4ff0ff3120
:100f60004ff0ff3000f0c2b8adf1080c6de904cecf
:100f7000fff70ef9ddf804e0dde9022304b0704765
:020000040000fa
:020000040040ba
:100f8000074b82221a60074a5a6049f20a621a63c2
:100f9000054a00211177116201221a60704700bfd3
:0c0fa0000080004011000e008400402082
:020000040000fa
:020000040040ba
:100fac00094b5b6913f0e00f0dd0074b4ff48072c7
:100fbc001a605b6913f0010f05d0034b9a695a69eb
:0c0fcc0012f0010ffad1704700800240c3
:020000040000fa
:020000040040ba
:100fd80008b500f077f8fff789fdfff721fc4ff41b
:100fe8000043054a5360b03a5360fff7c5fffff767
:0c0ff80059fffff715fe08bd00190e4060
:020000040000fa
:020000040040ba
:1010040010b50023934206d113f0030018bf01204a
:0e10140000eb930010bdc45ccc540133f2e736
:020000040000fa
:020000040040ba
:02102200fee7e7
:020000040000fa
:020000040040ba
:10102400044b187f044b1b6983f40073c3f3402300
:0c103400184370478400402000800040fa
:020000040000fa
:020000040040ba
:1010400038b5044600f018f8054600f047f80028c7
:0c105000fbd129462046fff7d7fc38bd35
:020000040000fa
:020000040040ba
:10105c0058b138b5441e4ff47a752846fff7dcfebc
:0c106c00013cb4f1ff3ff8d138bd7047e3
:020000040000fa
:020000040040ba
:1010780003783bb1034600bf13f8012f002afbd1c8
:08108800181a70471846704762
:020000040000fa
:020000040040ba
:10109000b910400005104000e9104000e910400080
:0410a000e910400013
:020000040000fa
:020000040040ba
:1010a40032b1c9b20244034603f8011b9342fbd197
:0410b400704700bfc2
:020000040000fa
:020000040040ba
:1010b8000a440023914201d10020704701f8013b06
:0210c800f8e747
:020000040000fa
:020000040040ba
:0210ca00fee73f
:020000040000fa
:020000040040ba
:1010cc00014b024a1a607047000c0e4000060004e7
:020000040000fa
:020000040040ba
:0c10dc00014b187d704700bf5000402001
:020000040000fa
:020000040040ba
:0410e800002070472d
:020000040000fa
:020000040040ba
:0410ec00704700bf8a
:020000040000fa
:020000040040ba
:0210f000fee719
:020000040000fa
:020000040040ba
:0210f200fee717
:020000040000fa
:020000040040ba
:0210f400fee715
:020000040000fa
:020000040040ba
:0210f600704741
:020000040000fa
:020000040040ba
:0210f800fee711
:020000040000fa
:020000040040ba
:0210fa0070473d
:020000040000fa
:020000040040ba
:0210fc0070473b
:020000040000fa
:02000004d0002a
:0400000002000000fa
:00000001FF
