:020000040000fa
:020000040040ba
:10000000f0ff452089014000470b40008b0b40006a
:10001000af0b4000b10b4000b30b400000000000ec
:10002000000000000000000000000000b70b4000ce
:10003000ad0b400000000000b70b4000b70b4000c4
:10004000b70b4000b70b4000b70b4000b70b4000a8
:10005000b70b4000b70b4000b70b4000b70b400098
:10006000b70b400000000000b70b4000b70b40008a
:10007000b70b4000b70b400059084000b70b4000d9
:10008000b70b4000b70b4000b70b4000b70b400068
:10009000b70b4000e9024000b70b4000b70b40002f
:1000a000b70b4000b70b4000b70b4000b70b400048
:1000b000b70b4000b70b4000b70b4000b70b400038
:1000c000b70b4000b70b4000b70b4000b70b400028
:1000d000b70b4000b70b4000b70b4000b70b400018
:1000e000b70b4000b70b4000b70b4000b70b400008
:1000f000b70b4000b70b4000b70b4000b70b4000f8
:10010000b70b4000b70b4000b70b4000b70b4000e7
:10011000b70b4000000000000000000000000000dd
:10012000b70b4000b70b4000b70b4000b70b4000c7
:10013000b70b4000b70b400000000000b70b4000b9
:10014000b70b4000b70b4000b70b4000b70b4000a7
:10015000b70b4000b70b4000b70b4000b70b400097
:08016000b70b4000b70b400093
:020000040000fa
:020000040040ba
:10016800f8b500bff8bc08bc9e467047f1094000ce
:10017800f8b500bff8bc08bc9e467047cd094000e2
:020000040000fa
:020000040040ba
:1001880008b5494b9847494b9847eff3108172b629
:10019800474ad2f8883043f47003c2f88830bff376
:1001a8004f8fbff36f8f01b962b6424b424a5a6014
:1001b8009a6812f0010ffbd03e4bdb6813f4c07f46
:1001c80013d03e4b0c221a603a4b3d4a5a609a684b
:1001d80012f0010ffbd0374b3a4a5a609a6812f076
:1001e800010ffbd0384b394a1a60bff34f8fbff36a
:1001f8006f8f2f4cd4f8903223f00103c4f890325b
:10020800d4f8943223f00103c4f89432bff34f8f2b
:10021800bff36f8f00f014fc2d4b23f07f03a36016
:100228002c4b9847bff34f8fbff36f8f0022c4f852
:100238005022bff34f8fbff36f8f636943f40033ce
:100248006361bff34f8fbff36f8fc4f88420bff390
:100258004f8fd4f88030c3f3c906c3f34e33590126
:1002680043f6e075204601ea0504334644ea837202
:10027800c0f86022013bb3f1ff3ff7d1203911f1fb
:10028800200ff0d1bff34f8f094a536943f48033ed
:100298005361bff34f8fbff36f8f0f4b98470f4bcf
:1002a800984700f065fbfee7b50b4000b50b400032
:1002b80000ed00e0000c0e400d00005acc1040206c
:1002c8000c08005a0c07005a00180e40010000a53f
:1002d800000040001d094000b50b4000b50b400070
:020000040000fa
:020000040040ba
:1002e80008b54c4b196b01f0f0014b4a52691b6978
:1002f80013f0010f0dd0474b9868474bdb689342ca
:1003080005d9002939d1444b5b6898540132424bd6
:100318005a61404b1b6913f0020f1dd03d4b022060
:1003280098613d4b9b69002939d13b4989689942bd
:1003380029d939490968c85c3649c8600133364942
:1003480088680969834201d1002941d03249c968c6
:10035800914241d030498b61304b1b7863b12d4bb2
:100368001b6913f4007f03d02b4bdb68934239d011
:10037800284b4ff400725a6108bd274b5b6823f87d
:1003880012000132c3e7244909690029d7d021495d
:10039800ff20c8602048016901390161cfe71e4983
:1003a8008968994207d91c49096831f81300194925
:1003b800c8600133c3e7184909690029bfd0154946
:1003c8004ff6ff70c8601448016901390161b6e74a
:1003d800124901200870bde70e49012088610220fa
:1003e8004861b7e70b494ff080730b600a4b002256
:1003f8001a7740f20320886108490a701b6a002bab
:10040800bad0054b586a1b6a9847044b1b78002bd7
:10041800aed1b1e70080004084104020d8104020c1
:020000040000fa
:020000040040ba
:1004280030b4464c247f002c40f0858005460029d6
:1004380032d0002830d04148056042600024446131
:10044800846104613d488160002a3bd03b4ad36007
:100458003a4a012111773a4989689168d2688a42f3
:1004680003d93648c268521a0261354a126b12f033
:10047800f00f37d1314a92698a4227d22f4a116840
:1004880008782f49c860916901319161002b4dd0de
:1004980001202b4b58614fe0141c18bf0124002b7e
:1004a80014bf20460020002846d02448056042603a
:1004b8000024446184610461002dc3d11f4a0021d6
:1004c8009160c3e71d4a0021d160c1e71b4a126948
:1004d800002adbd01a4aff21d16018490a69013a7b
:1004e8000a61d3e7154a916849089160116949087a
:1004f8001161d1684908d160916892698a4208d22d
:100508000e4a116808880e49c860916901319161e5
:10051800bce70a4a1269002ab8d0094a4ff6ff71a7
:10052800d16006490a69013a0a61afe7044b022221
:100538005a61012000e0002030bc70478410402040
:0405480000800040ef
:020000040000fa
:020000040040ba
:10054c00314b0022c3f81421d3f8141141f01001df
:10055c00c3f814112d494ff400134b606ff40013c2
:10056c000b604ff0ff334b650b66c1f89030c1f850
:10057c00a0300a614b618a63c1f8182101f5007142
:10058c0014200867486748606ff0140008604b65da
:10059c000b66c1f89030c1f8a0300a614b618a63d8
:1005ac00c1f8182101f500710b604b650b66c1f8a1
:1005bc009030c1f8a0300a614b618a63c1f81821f0
:1005cc0001f500714ff4e00008674a6748606ff46a
:1005dc00e00008604b650b66c1f89030c1f8a030a4
:1005ec000a614b618a63c1f8182101f500710b6037
:1005fc004b650b66c1f89030c1f8a0300a614b61b5
:10060c008a63c1f81821704700800840000e0e4024
:020000040000fa
:020000040040ba
:10061c00b01040201c00000000000000d81040204a
:10062c000100000000000000841040202c0000009d
:10063c0000000000501040203400000000000000ba
:10064c00cc104020040000000000000000004020fe
:10065c000010000000000000d0104020040000003a
:10066c0000000000001040205000000000000000be
:10067c00d410402004000000000000000000000026
:10068c000000000066666666666666666666666696
:020000040000fa
:020000040040ba
:10069c00002830d010b40446194b1b7d002b2cd1f4
:1006ac00174b1860596000229a6001221a7558681d
:1006bc009b68144a526912f0020f13d0984211d958
:1006cc0010494a6812f4003f14bf34f81320e25c5e
:1006dc00c2f30802ca6101334a6912f0020f01d059
:1006ec009842eed8064a9360064b02229a6001208b
:1006fc005df8044b7047002070470020f8e700bffe
:08070c00501040200080024063
:020000040000fa
:020000040040ba
:1007140038b51a4b1c681d681b7d002b2cd0174b59
:1007240058689b68164a526912f0020f13d0984217
:1007340011d913494a6812f4003f14bf35f8132045
:10074400e25cc2f30802ca6101334a6912f0020f83
:1007540001d09842eed8094a9360936883420bd340
:10076400134600221a75064a0221d160db681bb1c8
:10077400024b1869db68984738bd00bf5010402011
:0407840000800240af
:020000040000fa
:020000040040ba
:10078800164b174a9a629a6e12f0020ffbd0134a60
:10079800136b23f07003136313469a6e12f0080f5d
:1007a800fbd00e4a136b23f4407343f48073136336
:1007b80013469a6e12f0080ffbd0084a136b23f009
:1007c800030343f00203136313469a6e12f0080ff3
:1007d800fbd0024b034a1a61704700bf00060e4067
:0807e800013f1820005c230012
:020000040000fa
:020000040040ba
:1007f00070b5174b9d699e6993f82c303bb3144b31
:10080000dc691b6a13494a6912f0010f0dd09c4242
:100810000bd98a69c2f30802486810f4003f14bf7c
:1008200026f81320ea540133ede7094a1362136aec
:10083000a3420cd31346002283f82c20054ae12161
:10084000d1605b6a1bb1024b986a5b6a984770bdc6
:0808500050104020008002401e
:020000040000fa
:020000040040ba
:1008580010b5164b5b6913f0e0030fd1134b5b69be
:1008680013f0010f1bd1114b5b6913f0020f04d079
:100878000e4b1b6913f0020f14d110bd0c4c2363ef
:1008880000f010f9094be122da60002384f82c30db
:10089800636a002be2d0a06a636a9847dee7fff735
:1008a800a3ffe0e7fff732ffe7e700bf0080024061
:0408b800501040207c
:020000040000fa
:020000040040ba
:1008bc00144bd96821f4e0610904090c124a0a436b
:1008cc00da60bff35f8f62b6104ae02182f80e1334
:1008dc004ff48040106082f815134ff40011116032
:1008ec005a6a42f480225a625a6942f010025a61e2
:1008fc005a6a42f400325a625a6a42f480325a629c
:10090c00704700bf00ed00e00000fa0500e100e0d8
:020000040000fa
:020000040040ba
:10091c000e4a38b5002313600d4a0e4c13600e4a74
:10092c000e4d13600e4a13600e4a13600e4a53624a
:10093c0013610123936000f03af900f038f9ac42ee
:10094c0000d338bd54f8043b9847f8e7d410402046
:10095c000c10402074014000081040207801400029
:0c096c000010402004104020101040201b
:020000040000fa
:020000040040ba
:1009780008b5002000f0acf800f00cf90028fbd115
:1009880020210e48fff786fe0d4d4ff480540026b7
:1009980007e000f0fff80028fbd121462846fff7c2
:1009a80079fe23462a4631463046fff739fd0028ae
:1009b800efd000f0c5f80028fbd1eae7040b4000af
:0409c80000004020cb
:020000040000fa
:020000040040ba
:1009cc0010b5054c227832b9044b13b10448aff37f
:1009dc0000800123237010bdb010402000000000e7
:1009ec000000000008b5034b1bb103490348aff3eb
:1009fc00008008bd00000000b41040200000000082
:020000040000fa
:020000040040ba
:100a0c000c4b4ff486721a6050221a604ff40c6231
:100a1c005a600a221a62084b00229a61da611a6241
:100a2c0083f82c205a621a605a609a601a75da6040
:0c0a3c001a6370470080024050104020f8
:020000040000fa
:020000040040ba
:100a480070b50b480b4d4ff6ff76016821b9436826
:100a580013b900f0adf870bd83684268334000f107
:100a68000c0455f823302046984704eb8000ece747
:080a78001c064000640b400065
:020000040000fa
:020000040040ba
:100a8000074b82221a60074a5a6049f20a621a63c7
:100a9000054a00211177116201221a60704700bfd8
:0c0aa0000080004011000e008410402077
:020000040000fa
:020000040040ba
:100aac00094b5b6913f0e00f0dd0074b4ff48072cc
:100abc001a605b6913f0010f05d0034b9a695a69f0
:0c0acc0012f0010ffad1704700800240c8
:020000040000fa
:020000040040ba
:100ad80008b500f057f8fff753fefff733fd4ff462
:100ae8000043054a5360b03a5360fff7c5fffff76c
:0c0af80089fffff7dffe08bd00190e406b
:020000040000fa
:020000040040ba
:100b04004053414d453730205350492d3e554152b5
:100b140054206272696467652072656164790d0aa4
:040b2400000000bf0e
:020000040000fa
:020000040040ba
:100b280010b50023934206d113f0030018bf01202b
:0e0b380000eb930010bdc45ccc540133f2e717
:020000040000fa
:020000040040ba
:020b4600fee7c8
:020000040000fa
:020000040040ba
:100b4800044b187f044b1b6983f40073c3f34023e1
:0c0b5800184370478410402000800040cb
:020000040000fa
:020000040040ba
:100b6400790b4000290b4000a90b4000a90b400061
:040b7400a90b400089
:020000040000fa
:020000040040ba
:100b78000a440023914201d10020704701f8013b4b
:020b8800f8e78c
:020000040000fa
:020000040040ba
:020b8a00fee784
:020000040000fa
:020000040040ba
:100b8c00014b024a1a607047000c0e40000600042c
:020000040000fa
:020000040040ba
:0c0b9c00014b187d704700bf5010402036
:020000040000fa
:020000040040ba
:040ba8000020704772
:020000040000fa
:020000040040ba
:020bac00fee762
:020000040000fa
:020000040040ba
:020bae00fee760
:020000040000fa
:020000040040ba
:020bb000fee75e
:020000040000fa
:020000040040ba
:020bb200fee75c
:020000040000fa
:020000040040ba
:020bb400704788
:020000040000fa
:020000040040ba
:020bb600fee758
:020000040000fa
:020000040040ba
:020bb800704784
:020000040000fa
:020000040040ba
:020bba00704782
:020000040000fa
:02000004d0002a
:0400000002000000fa
:00000001FF
