:020000040000fa
:020000040040ba
:10000000f8ff452055074000b31940003320400059
:10001000e720400017214000672140000000000059
:100020000000000000000000000000001522400059
:1000300093204000000000001522400015224000df
:1000400015224000152240001522400015224000d4
:1000500015224000152240001522400015224000c4
:10006000051a400000000000152240001522400043
:1000700015224000dd17400079174000411840006c
:100080001522400015224000152240001522400094
:1000900015224000cd0840001522400015224000e6
:1000a0001522400015224000152240001522400074
:1000b0001522400015224000152240001522400064
:1000c0001522400015224000152240001522400054
:1000d0001522400015224000152240001522400044
:1000e0001522400015224000152240001522400034
:1000f000b5194000a51a4000551a400015224000cd
:100100001522400015224000152240001522400013
:100110001522400000000000000000000000000068
:1001200015224000152240001522400015224000f3
:10013000152240001522400000000000152240005a
:1001400015224000152240001522400015224000d3
:1001500015224000152240001522400015224000c3
:080160001522400015224000a9
:020000040000fa
:020000040040ba
:10016800f8b500bff8bc08bc9e467047391c400073
:10017800f8b500bff8bc08bc9e467047151c400087
:020000040000fa
:020000040040ba
:0801880010030000010000005b
:020000040000fa
:020000040040ba
:100190002de9f041aeb006461546059100270599b8
:1001a0000b78002b00f0fa8000244ff0ff33cde9ec
:1001b00009430eab0c9380230b940d930b5d0bb195
:1001c000252b26d134b12246304601f01eff059b77
:1001d00023440593059b1a78252a40f0d78003f124
:1001e0000108cdf81480059803782b2b1ad025d858
:1001f000202b1bd0232b1dd02a2b27d001f0a2fcb3
:100200000b90059b1a78303a092a2ed801330593b2
:10021000f7e70134d2e7099b43f00103013009936a
:100220000590e0e7099b43f00403f7e7099b43f0df
:100230000803f3e7099b43f01003efe72d2bead007
:10024000302bd9d1099b43f00203e7e72b681a1d35
:100250001b682a600130002b05900b9305da099a80
:100260005b4282f0010209920b93099bda0744bfbb
:1002700023f002030993059b1a782e2a0dd1002240
:10028000581c0a9205905a782a2a25d102330593e0
:100290002b681a1d1b682a600a9305a801f0cafd85
:1002a000059b0390187801f06fff6928039979d0b6
:1002b00032dc632800f0cb8019dc252800f0d980df
:1002c000612853d000234ff0ff32cdf814800993fa
:1002d0000b930a920093d4e001f034fc0a90059b42
:1002e0001a78303a092ad8d801330593f7e76428f9
:1002f00058d06728e6dc2a4606a801f071fe0028df
:1003000000f0a180059b5a1c05921b7806aa09a93a
:10031000304601f079ff38e0702873d015dc6e2884
:1003200000f08c806f28cdd12b46002206a800f06b
:100330006ffd002800f08780059b06aa013309a9fc
:100340003046059301f05eff1fe075283ad078280b
:1003500048d07328b6d1802975d1059b2a6801330e
:100360000593131d2b60126800237de02a4606a822
:1003700001f036fe002866d0059b5a1c05921b78ba
:1003800006aa09a9304601f03fff04443c44a742b5
:100390007add3e4b4f221a604ff0ff3738462eb0c1
:1003a000bde8f0812b46012206a800f031fd0028af
:1003b00049d0059b06aa013309a93046059301f0ef
:1003c00021ffe2e72b46002206a800f021fd0028cd
:1003d00039d0059b06aa013309a93046059301f0df
:1003e000bdfad2e72b46002206a800f011fd50b35b
:1003f000059b5a1c05921b7806aa09a9304601f0f4
:1004000003ffc2e72b460022f02106a800f000fd02
:10041000c8b1059b01330593dde9062313430bd1d6
:100420001b4801f061fe099b009319490b9b024692
:10043000304600f08ffda8e77823dde72b463a1918
:1004400006a800f0c9fd059b013305939ee78029ae
:10045000f9d1059b013305932b681a1d1b682a608f
:100460008df8183006aa012309a9304601f0cefe06
:100470008be78029e7d1059b01330593099b009306
:100480000b9b04490122d3e7274688e6440240201b
:08049000f8214000fe214000ac
:020000040000fa
:020000040040ba
:100498002de9f04f099f154604468e461e46002b4f
:1004a80040f0cc808a42b2fa82fc4cd9bcf1000ff1
:1004b8000bd0ccf1200801fa0cfe20fa08f802fa59
:1004c8000cf548ea0e0e00fa0cf44fea15491ffa2b
:1004d80085f8befbf9fa210c09fb1ae30afb08fbb5
:1004e80041ea03439b452ad9eb180af1ff3004d2ad
:1004f8009b4502d9aaf102002b44a3eb0b03a4b23b
:10050800b3fbf9f209fb123302fb08f844ea03448f
:10051800a04516d92c1902f1ff3303d2a04501d901
:10052800931e2c44a4eb080443ea004027b124faa4
:100538000cf400233c607b603146bde8f08f5046e8
:10054800dbe71346eee702b9ffdebcf1000f2ed160
:100558008b1a01264fea154eaab2b3fbfef8210cfe
:100568000efb183308fb02f941ea0343994561d9a8
:10057800eb1808f1ff3004d2994502d9a8f102001e
:100588002b44a3eb0903a4b2b3fbfef10efb11331a
:100598004a4344ea0344a2424ed92c1901f1ff33dd
:1005a80003d2a24201d98b1e2c44a41abce7ccf179
:1005b800200e02fa0cf521fa0ef901fa0cf320fad2
:1005c8000efe4eea03034fea154800fa0cf4b9fb95
:1005d800f8f11ffa85fe08fb1192180c01fb0ef6c4
:1005e80040ea0242964221d9aa1801f1ff3003d20b
:1005f800964201d9881e2a44921b9bb2b2fbf8f995
:1006080008fb192209fb0efe43ea02439e450fd957
:10061800eb1809f1ff3604d29e4502d9a9f102066a
:100628002b44a3eb0e0346ea004693e70846e3e7ac
:100638004e46f6e74046a4e70b46b6e78b4206d996
:10064800002f7ed00026c7e90001304674e7b3fad0
:1006580083fcbcf1000f0fd18b4201d3824209d831
:10066800841a61eb030e0120002f6dd0c7e9004efc
:10067800002661e76046f7e7ccf1200e03fa0cf399
:1006880022fa0ef521fa0ef41d4301fa0cf320fab2
:100698000ef10b434fea154a00fa0cf6b4fbfaf9cf
:1006a8001ffa85f80afb19401c0c09fb08f144eafb
:1006b8000044a14202fa0cf23fd92c1909f1ff308b
:1006c80004d2a14202d9a9f102002c44641a9bb2b7
:1006d800b4fbfaf90afb194409fb08f843ea044198
:1006e80088452cd9691809f1ff3304d2884502d905
:1006f800a9f10203294443ea0040a1eb0801a0fb49
:1007080002894945c2464c4602d306d1464504d221
:10071800b8eb020a69eb05040138afb1b6eb0a037e
:1007280061eb040606fa0efe23fa0cf34eea030305
:1007380026fa0cf6c7e900369ae74846c6e74b465c
:0c074800d9e73e463846f7e63e46f5e6a7
:020000040000fa
:020000040040ba
:1007540008b54f4b98474f4b9847eff3108172b64b
:100764004d4ad2f8883043f47003c2f88830bff39e
:100774004f8fbff36f8f01b962b6484b484a5a6036
:100784009a6812f0010ffbd0444bdb6813f4c07f6e
:1007940013d0444b0c221a60404b434a5a609a6867
:1007a40012f0010ffbd03d4b404a5a609a6812f098
:1007b400010ffbd03e4b3f4a1a60bff34f8fbff38c
:1007c4006f8f354cd4f8903223f00103c4f8903283
:1007d400d4f8943223f00103c4f89432bff34f8f5a
:1007e400bff36f8f01f042fb334b23f07f03a36011
:1007f400324b9847636913f4003f12d1bff34f8f14
:10080400bff36f8f0022c4f85022bff34f8fbff3a2
:100814006f8f626942f400326261bff34f8fbff39e
:100824006f8f1d4b5b6913f4803f29d11a4b002253
:10083400c3f88420bff34f8fd3f88030c3f3c906c5
:10084400c3f34e335a0143f6e075134802ea050434
:10085400334644ea8371c0f86012013bb3f1ff3fb1
:10086400f7d1203a12f1200ff0d1bff34f8f0a4a8b
:10087400536943f480335361bff34f8fbff36f8fda
:100884000f4b98470f4b984700f0d0f9fee700bf95
:10089400972140009721400000ed00e0000c0e403d
:1008a4000d00005a380240200c08005a0c07005a68
:1008b40000180e40010000a500004000011940008e
:0808c40097214000972140003c
:020000040000fa
:020000040040ba
:1008cc0008b54c4b196b01f0f0014b4a52691b698e
:1008dc0013f0010f0dd0474b9868474bdb689342e0
:1008ec0005d9002939d1444b5b6898540132424bed
:1008fc005a61404b1b6913f0020f1dd03d4b022077
:10090c0098613d4b9b69002939d13b4989689942d3
:10091c0029d939490968c85c3649c8600133364958
:10092c0088680969834201d1002940d03249c968dd
:10093c00914240d030498b61304b1b7863b12d4bc9
:10094c001b6913f4007f03d02b4bdb68934238d028
:10095c00284b4ff400725a6108bd274b5b6823f893
:10096c0012000132c3e7244909690029d7d0214973
:10097c000020c8602048016901390161cfe71e4998
:10098c008968994207d91c49096831f8130019493b
:10099c00c8600133c3e7184909690029bfd015495c
:1009ac000020c8601448016901390161b7e7134997
:1009bc0001200870bee70f490120886102204861c0
:1009cc00b8e70c494ff080730b600b4b00221a7781
:1009dc0040f20320886109490a701b6a002bbbd0c6
:1009ec00054b586a1b6a9847044b1b78002bafd1f8
:1009fc00b2e700bf00800040f00140209200402090
:020000040000fa
:020000040040ba
:100a0c0030b4464c247f002c40f0848005460029ed
:100a1c0032d0002830d04148056042600024446147
:100a2c00846104613d488160002a3bd03b4ad3601d
:100a3c003a4a012111773a4989689168d2688a4209
:100a4c0003d93648c268521a0261354a126b12f049
:100a5c00f00f37d1314a92698a4227d22f4a116856
:100a6c0008782f49c860916901319161002b4cd0f5
:100a7c0001202b4b58614ee0141c18bf0124002b95
:100a8c0014bf20460020002845d024480560426051
:100a9c000024446184610461002dc3d11f4a0021ec
:100aac009160c3e71d4a0021d160c1e71b4a12695e
:100abc00002adbd01a4a0021d16018490a69013a90
:100acc000a61d3e7154a9168490891601169490890
:100adc001161d1684908d160916892698a4208d243
:100aec000e4a116808880e49c860916901319161fc
:100afc00bce70a4a1269002ab8d0094a0021d16021
:100b0c0006490a69013a0a61b0e7054b02225a61ab
:100b1c00012000e0002030bc704700bff0014020f5
:040b2c000080004005
:020000040000fa
:020000040040ba
:100b30001c0240201c000000000000009200402029
:100b40000100000000000000f00140202c00000027
:100b50000000000030014020c00000000000000044
:100b6000940040209c00000000000000380240205b
:100b7000040000000000000050004020420000007f
:100b80000000000048024020420000000400000075
:100b9000004101008c0240204200000004000000df
:100ba00000410200d002402042000000040000008a
:100bb0000041030014034020420000000400000034
:100bc00000410400580340204200000004000000df
:100bd00000410200930040200100000000000000de
:100be0009c034020040000000100000080d1f008b8
:100bf0003c024020040000000000000000004020f3
:100c000050000000000000004002402008000000ea
:100c1000000000000000000000000000666666663c
:100c20006666666666666666666666666666666664
:020000040000fa
:020000040040ba
:100c300030b5c1b0002000f0cbff304a536823f03c
:100c4000800353602e4c2f4d2146284601f0aafa0e
:100c500001344021204601f039f82b49284601f0a3
:100c60009bfa4021204601f031f82849284601f03e
:100c7000a5fa4021204601f029f82549284601f02f
:100c800097fa4021204601f021f8224c21462846bf
:100c900001f0a0fa4021601c01f018f81e4c21461a
:100ca000284601f09dfa4021601c01f00ff81b4816
:100cb00001f0e1f91a4800f0f5fd4ff48074224686
:100cc0000021684601f03cfa2146684601f054fada
:100cd00078b101f079fa0028fbd14ff480716846b1
:100ce00000f0b8f901f070fa0028fbd1002041b003
:100cf00030bd0c4801f0bff9f8e700bf00800040ac
:100d000048024020352040008c024020d002402084
:100d1000140340205000402058034020b41f4000de
:080d200000a3e111d41f400003
:020000040000fa
:020000040040ba
:100d2800334b0022c3f81421d3f8141141f01001f9
:100d3800c3f814112f490a6760234b6703f50013a2
:100d48004b602d4b0b604ff0ff334b650b66c1f8c2
:100d58009030c1f8a0300a614b618a63c1f818214c
:100d680001f50071102008671320486748606ff08c
:100d7800130008604b650b66c1f89030c1f8a030cd
:100d88000a614b618a63c1f8182101f500710b6093
:100d98004b650b66c1f89030c1f8a0300a614b6111
:100da8008a63c1f8182101f500714ff4e300086760
:100db8001248486712484860124808604b650b663d
:100dc800c1f89030c1f8a0300a614b618a63c1f85c
:100dd800182101f500710b604b650b66c1f8903066
:100de800c1f8a0300a614b618a63c1f818217047c5
:100df80000800840000e0e409fffdfff00000c0639
:080e080000807d56ff7f82a9e6
:020000040000fa
:020000040040ba
:100e1000882910b536d012dc812943d003dc802923
:100e200040d0002010bd82290ed08429f9d1196844
:100e300002b30a1d1a60b1f90020d3171ee0a029e1
:100e40002bd00bdc9029ecd11968073121f0070178
:100e500001f108021a60d1e900230fe0c02901d096
:100e6000f029ded11a68111d196013680360002390
:100e7000436005e00a1d1a600a880023c0e90023c8
:100e80000120cfe7196822b10a1d1a6091f90020ec
:100e9000d3e70a1d1a600a78efe71a68111d196076
:100ea0001268cae719681ab10a1d1a600a68c4e70d
:0c0eb0000c1d1c600b68c0e90032e1e77b
:020000040000fa
:020000040040ba
:100ebc0030b4224ad16821f4e0610904090c204bba
:100ecc000b43d360bff35f8f62b61e4be02183f8f8
:100edc0008134ff48070186083f80d134ff400540e
:100eec001c6083f80e134ff48040186083f80f13c6
:100efc004ff400451d6083f815134ff400151d6069
:100f0c0083f82c134ff480555d6083f82d135c60cf
:100f1c0083f82e135860536a43f480235362536949
:100f2c0043f010035361536a43f400335362536a22
:100f3c0043f48033536230bc704700bf00ed00e0d7
:080f4c000000fa0500e100e0dd
:020000040000fa
:020000040040ba
:100f54002de9ff471d460c9b13f0010906468a46fe
:100f6400144601d195420bd822465146304601f031
:100f74004af8a54204d82546284604b0bde8f087bf
:100f84002f1b102f3a464ff0200128bf102268462d
:100f9400b84601f0d3f800bfb8f10f0f11d83b09e0
:100fa4006ff00f0202fb03726946304601f02bf822
:100fb400b9f1000fe0d122465146304601f023f842
:100fc400dae710226946304601f01df8a8f110084e
:040fd400e2e700bf91
:020000040000fa
:020000040040ba
:100fd800842910b523d00cdc812903d0822913d0b1
:100fe80080290bd119680c1d1c600b6803601a60fe
:100ff80013e0902921d003dc882917d0002010bde8
:10100800a029efd0c029ece719680c1d1c600b68fb
:101018000360d1171046c3e900010120efe7196802
:101028000c1d1c600b6803601a80f6e719680c1d1c
:101038001c600b6803601a70efe719680c1d1c60d0
:0c10480009680160d317c1e90023e6e746
:020000040000fa
:020000040040ba
:10105400002830d010b40446194b1b7d002b2cd132
:10106400174b1860596000229a6001221a7558685b
:101074009b68144a526912f0020f13d0984211d996
:1010840010494a6812f4003f14bf34f81320e25c9c
:10109400c2f30802ca6101334a6912f0020f01d097
:1010a4009842eed8064a9360064b02229a600120c9
:1010b4005df8044b7047002070470020f8e700bf3c
:0810c40094004020008002406e
:020000040000fa
:020000040040ba
:1010cc002de9f84f04460c9f6668d4f80cb02469df
:1010dc0010463a68013c002502f0020a0b9a0bf804
:1010ec000450002e1946b8bf0126012390464fea42
:1010fc00e279002c03dcd3b12046bde8f88f50ea2e
:10110c00010209d1721b002a06dc0a9a521b002a22
:10111c00f1ddbaf1000feed042464b4600f0befeb8
:10112c00013c134630320bf804200135e1e73b68f3
:08113c0023f010033b60dfe724
:020000040000fa
:020000040040ba
:1011440038b51a4b1c681d681b7d002b2cd0174b1f
:1011540058689b68164a526912f0020f13d09842dd
:1011640011d913494a6812f4003f14bf35f813200b
:10117400e25cc2f30802ca6101334a6912f0020f49
:1011840001d09842eed8094a9360936883420bd306
:10119400134600221a75064a0221d160db681bb18e
:1011a400024b1869db68984738bd00bf94004020a3
:0411b4000080024075
:020000040000fa
:020000040040ba
:1011b80038b51a4b1c681d681b7d002b2cd0174bab
:1011c80058689b68164a526912f0020f13d0984269
:1011d80011d913494a6812f4003f14bf35f8132097
:1011e800e25cc2f30802ca6101334a6912f0020fd5
:1011f80001d09842eed8094a9360936883420bd392
:10120800134600221a75064a0221d160db681bb119
:10121800024b1869db68984738bd00bfc8004020fa
:041228000040024040
:020000040000fa
:020000040040ba
:10122c0038b51a4b1c681d681b7d002b2cd0174b36
:10123c0058689b68164a526912f0020f13d09842f4
:10124c0011d913494a6812f4003f14bf35f8132022
:10125c00e25cc2f30802ca6101334a6912f0020f60
:10126c0001d09842eed8094a9360936883420bd31d
:10127c00134600221a75064a0221d160db681bb1a5
:10128c00024b1869db68984738bd00bffc00402052
:04129c0000c002404c
:020000040000fa
:020000040040ba
:1012a000184b194a9a629a6e12f0020ffbd0154a37
:1012b000136b23f07003136313469a6e12f0080f3a
:1012c000fbd0104a136b23f4407343f48073136311
:1012d00013469a6e12f0080ffbd00a4a136b23f0e4
:1012e000030343f00203136313469a6e12f0080fd0
:1012f000fbd0044b054a1a614ff4e042c3f80021c9
:10130000704700bf00060e40013f182000fd23007b
:020000040000fa
:020000040040ba
:1013100038b5174b1b7d4bb3154b5c689b68154a62
:10132000526912f0020f0fd09c420dd9104d114995
:101330002a68c869d25c0243ca6101334a6912f063
:10134000020f01d09c42f3d8094a93609368a342ec
:101350000cd3134600221a75064a4ff40071d1606f
:10136000db681bb1024b1869db68984738bd00bfca
:0813700030014020001a0e407c
:020000040000fa
:020000040040ba
:1013780038b5174b1b7d4bb3154b5c689b68154afa
:10138800526912f0020f0fd09c420dd9104d11492d
:101398002a68c869d25c0243ca6101334a6912f0fb
:1013a800020f01d09c42f3d8094a93609368a34284
:1013b8000cd3134600221a75064a4ff40071d16007
:1013c800db681bb1024b1869db68984738bd00bf62
:0813d80060014020000a0e40f4
:020000040000fa
:020000040040ba
:1013e00038b5174b1b7d4bb3154b5c689b68154a92
:1013f000526912f0020f0fd09c420dd9104d1149c5
:101400002a68c869d25c0243ca6101334a6912f092
:10141000020f01d09c42f3d8094a93609368a3421b
:101420000cd3134600221a75064a4ff40071d1609e
:10143000db681bb1024b1869db68984738bd00bff9
:0814400090014020001e0e4047
:020000040000fa
:020000040040ba
:1014480038b5174b1b7d4bb3154b5c689b68154a29
:10145800526912f0020f0fd09c420dd9104d11495c
:101468002a68c869d25c0243ca6101334a6912f02a
:10147800020f01d09c42f3d8094a93609368a342b3
:101488000cd3134600221a75064a4ff40071d16036
:10149800db681bb1024b1869db68984738bd00bf91
:0814a800c0014020001c0e40b1
:020000040000fa
:020000040040ba
:1014b00070b5174b9d699e6993f82c303bb3144b64
:1014c000dc691b6a13494a6912f0010f0dd09c4276
:1014d0000bd98a69c2f30802486810f4003f14bfb0
:1014e00026f81320ea540133ede7094a1362136a20
:1014f000a3420cd31346002283f82c20054ae12195
:10150000d1605b6a1bb1024b986a5b6a984770bdf9
:0815100094004020008002401d
:020000040000fa
:020000040040ba
:1015180070b5174b9d699e6993f82c303bb3144bfb
:10152800dc691b6a13494a6912f0010f0dd09c420d
:101538000bd98a69c2f30802486810f4003f14bf47
:1015480026f81320ea540133ede7094a1362136ab7
:10155800a3420cd31346002283f82c20054ae1212c
:10156800d1605b6a1bb1024b986a5b6a984770bd91
:08157800c800402000400240c1
:020000040000fa
:020000040040ba
:1015800070b5174b9d699e6993f82c303bb3144b93
:10159000dc691b6a13494a6912f0010f0dd09c42a5
:1015a0000bd98a69c2f30802486810f4003f14bfdf
:1015b00026f81320ea540133ede7094a1362136a4f
:1015c000a3420cd31346002283f82c20054ae121c4
:1015d000d1605b6a1bb1024b986a5b6a984770bd29
:0815e000fc00402000c00240a5
:020000040000fa
:020000040040ba
:1015e80038b5164b93f82c303bb3144bdc691b6aa7
:1015f800134a526912f0010f0dd09c420bd9104ac0
:101608000e4d9069a969c8540133516911f0010f51
:1016180001d09c42f5d8094a1362136aa3420cd33d
:101628001346002283f82c20054ae121d1605b6a29
:101638001bb1024b986a5b6a984738bd300140205d
:04164800001a0e4036
:020000040000fa
:020000040040ba
:10164c0038b5164b93f82c303bb3144bdc691b6a42
:10165c00134a526912f0010f0dd09c420bd9104a5b
:10166c000e4d9069a969c8540133516911f0010fed
:10167c0001d09c42f5d8094a1362136aa3420cd3d9
:10168c001346002283f82c20054ae121d1605b6ac5
:10169c001bb1024b986a5b6a984738bd60014020c9
:0416ac00000a0e40e2
:020000040000fa
:020000040040ba
:1016b00038b5164b93f82c303bb3144bdc691b6ade
:1016c000134a526912f0010f0dd09c420bd9104af7
:1016d0000e4d9069a969c8540133516911f0010f89
:1016e00001d09c42f5d8094a1362136aa3420cd375
:1016f0001346002283f82c20054ae121d1605b6a61
:101700001bb1024b986a5b6a984738bd9001402034
:04171000001e0e4069
:020000040000fa
:020000040040ba
:1017140038b5164b93f82c303bb3144bdc691b6a79
:10172400134a526912f0010f0dd09c420bd9104a92
:101734000e4d9069a969c8540133516911f0010f24
:1017440001d09c42f5d8094a1362136aa3420cd310
:101754001346002283f82c20054ae121d1605b6afc
:101764001bb1024b986a5b6a984738bdc0014020a0
:04177400001c0e4007
:020000040000fa
:020000040040ba
:1017780010b5164b5b6913f0e0030fd1134b5b698f
:1017880013f0010f1bd1114b5b6913f0020f04d04a
:101798000e4b1b6913f0020f14d110bd0c4c2363c0
:1017a80000f0c2fb094be122da60002384f82c30f8
:1017b800636a002be2d0a06a636a9847dee7fff706
:1017c80073fee0e7fff7bafce7e700bf00800240de
:0417d8009400402019
:020000040000fa
:020000040040ba
:1017dc0010b5164b5b6913f0e0030fd1134b5b692b
:1017ec0013f0010f1bd1114b5b6913f0020f04d0e6
:1017fc000e4b1b6913f0020f14d110bd0c4c23635c
:10180c0000f0a6fb094be122da60002384f82c30af
:10181c00636a002be2d0a06a636a9847dee7fff7a1
:10182c0075fee0e7fff7c2fce7e700bf00400240af
:04183c00c800402080
:020000040000fa
:020000040040ba
:1018400010b5164b5b6913f0e0030fd1134b5b69c6
:1018500013f0010f1bd1114b5b6913f0020f04d081
:101860000e4b1b6913f0020f14d110bd0c4c2363f7
:1018700000f08afb094be122da60002384f82c3067
:10188000636a002be2d0a06a636a9847dee7fff73d
:1018900077fee0e7fff7cafce7e700bf00c00240c1
:0418a000fc004020e8
:020000040000fa
:020000040040ba
:1018a400034608b9114b1b68104a1360104ad368e9
:1018b40043f08073d3600f4b1b6813f0007f12d189
:1018c4000c4b00225a601a6842f001021a605a68ee
:1018d40000bf00bf00bf00bf5b68d31a18bf01235d
:1018e400054a137070470023fae700bf9c034020a9
:0c18f400f0ed00e0001000e09300402048
:020000040000fa
:020000040040ba
:101900000e4a38b5002313600d4a0e4c13600e4a80
:101910000e4d13600e4a13600e4a13600e4a536256
:1019200013610123936000f077fc00f075fcac427a
:1019300000d338bd54f8043b9847f8e740024020f4
:101940000c00402074014000080040207801400055
:0c19500000004020040040201000402057
:020000040000fa
:020000040040ba
:10195c00f0b50c4649682368a668e76887b000298b
:10196c000593a4bf23f00203059305ab02930a234e
:10197c00cde900630546d2e900232046fff7a0fb22
:10198c002269059b0093013a3346121a39182846ee
:10199c00fff7dafa6b68db0503d563689842b8bfca
:0619ac00184607b0f0bd73
:020000040000fa
:020000040040ba
:0219b200fee74e
:020000040000fa
:020000040040ba
:1019b40008b5114b5b6913f0e00f0cd00e4be1221c
:1019c400da600e4b002283f82c205b6a1bb10b4bb0
:1019d400986a5b6a9847084b5b6913f0010f05d15d
:1019e400054b5b6913f0020f03d108bdfff7fafd45
:1019f400f6e7fff78bfcf8e7001a0e4030014020b1
:020000040000fa
:020000040040ba
:101a040008b5114b5b6913f0e00f0cd00e4be122cb
:101a1400da600e4b002283f82c205b6a1bb10b4b5f
:101a2400986a5b6a9847084b5b6913f0010f05d10c
:101a3400054b5b6913f0020f03d108bdfff704fee9
:101a4400f6e7fff797fcf8e7000a0e406001402034
:020000040000fa
:020000040040ba
:101a540008b5114b5b6913f0e00f0cd00e4be1227b
:101a6400da600e4b002283f82c205b6a1bb10b4b0f
:101a7400986a5b6a9847084b5b6913f0010f05d1bc
:101a8400054b5b6913f0020f03d108bdfff70efe8f
:101a9400f6e7fff7a3fcf8e7001e0e409001402094
:020000040000fa
:020000040040ba
:101aa40008b5114b5b6913f0e00f0cd00e4be1222b
:101ab400da600e4b002283f82c205b6a1bb10b4bbf
:101ac400986a5b6a9847084b5b6913f0010f05d16c
:101ad400054b5b6913f0020f03d108bdfff718fe35
:101ae400f6e7fff7affcf8e7001c0e40c00140200a
:020000040000fa
:020000040040ba
:101af40030b589b015464ff0ff32019202f203125d
:101b0400029200b96846cde9030151b14c1e002987
:101b1400059408da094b4f221a604ff0ff3009b0e0
:101b240030bd0c46f3e700220270cde906001a46e8
:101b3400294601a800f0bafaf1e700bf44024020a8
:020000040000fa
:020000040040ba
:101b440010b50278202a034600f10100f9d0a2f171
:101b540009010429f5d92b2a07d02d2a11d10121f5
:101b64000133013b00200a2403e00021f8e760432d
:101b7400801a13f8012f303a092af8d901b94042e2
:061b840010bd0021ede799
:020000040000fa
:020000040040ba
:101b8a00f0b5002503462f4695422e4607d313f09b
:101b9a00030218bf0122181a02eb9000f0bd1c784c
:101baa0034b101f8014b01330135ede70f5501342a
:101bba0093f801e0a64506eb040501eb040cf5dcfd
:061bca0002336146e0e772
:020000040000fa
:020000040040ba
:101bd00008b500f0c9fafff763fbfff7a5f800f0be
:101be000b1f800f091f800f053f800f033f84ff43a
:101bf0000043074a5360b03a536000f06df900f0bb
:101c0000bff800f0dbf800f0f7f8fff757f908bd70
:041c100000190e4069
:020000040000fa
:020000040040ba
:101c140010b5054c227832b9044b13b10448aff324
:101c240000800123237010bd1c024020000000002e
:101c34000000000008b5034b1bb103490348aff390
:101c4400008008bd000000002002402000000000c9
:020000040000fa
:020000040040ba
:101c54000c4b4ff486721a6050221a604ff40062e3
:101c64005a6051221a62084b00229a61da611a62a0
:101c740083f82c205a621a605a609a601a75da60e6
:0c1c8400704700bf001a0e4030014020e5
:020000040000fa
:020000040040ba
:101c90000c4b4ff486721a6050221a604ff40062a7
:101ca0005a6051221a62084b00229a61da611a6264
:101cb00083f82c205a621a605a609a601a75da60aa
:0c1cc000704700bf000a0e406001402089
:020000040000fa
:020000040040ba
:101ccc00a0b138b505460c4600f016f9094b93f84f
:101cdc002c306bb9074b9d61dc6100221a6201202c
:101cec0083f82c00044be1229a6038bd0020704729
:0c1cfc000020fae760014020000a0e40c2
:020000040000fa
:020000040040ba
:101d08000c4b4ff486721a6050221a604ff400622e
:101d18005a6051221a62084b00229a61da611a62eb
:101d280083f82c205a621a605a609a601a75da6031
:0c1d3800704700bf001e0e4090014020cc
:020000040000fa
:020000040040ba
:101d44000c4b4ff486721a6050221a604ff40062f2
:101d54005a6051221a62084b00229a61da611a62af
:101d640083f82c205a621a605a609a601a75da60f5
:0c1d7400704700bf001c0e40c001402062
:020000040000fa
:020000040040ba
:101d80000c4b4ff486721a6050221a604ff40c62aa
:101d90005a6051221a62084b00229a61da611a6273
:101da00083f82c205a621a605a609a601a75da60b9
:0c1db0001a63704700800240940040203d
:020000040000fa
:020000040040ba
:101dbc000c4b4ff486721a6050221a604ff40c626e
:101dcc005a6051221a62084b00229a61da611a6237
:101ddc0083f82c205a621a605a609a601a75da607d
:0c1dec001a63704700400240c80040200d
:020000040000fa
:020000040040ba
:101df8000c4b4ff486721a6050221a604ff40c6232
:101e08005a6051221a62084b00229a61da611a62fa
:101e180083f82c205a621a605a609a601a75da6040
:0c1e28001a63704700c00240fc0040201c
:020000040000fa
:020000040040ba
:101e340030b50d4a002300bf12f8134024b902eb59
:101e440043035b78184630bd01680d78a54209bf8d
:101e540002eb430301335b78013114bfdbb2016051
:0c1e64000a2be9d9eee700bf0021400086
:020000040000fa
:020000040040ba
:101e700070b50b480b4d4ff6ff76016821b94368ea
:101e800013b900f0c8f970bd83684268334000f1af
:101e90000c0455f823302046984704eb8000ece70b
:081ea000300b40002c21400032
:020000040000fa
:020000040040ba
:101ea80053b94ab9002908bf00281cbf4ff0ff31b9
:101eb8004ff0ff3000f0a8b9adf1080c6de904ce81
:101ec800fef7e6faddf804e0dde9022304b0704726
:020000040000fa
:020000040040ba
:101ed800064b82221a60064a5a60064a1a63064a64
:101ee80000211177116201221a60704700800040ba
:0c1ef80011000e000aff8080f001402065
:020000040000fa
:020000040040ba
:101f0400094b586910f0e00000d170474ff480721b
:101f14001a605b6913f0010ff7d0034b9a695a6991
:0c1f240012f0010ffad1f0e7000a0e40a5
:020000040000fa
:020000040040ba
:101f3000094b5b6913f0e00f0dd0074b4ff4807233
:101f40001a605b6913f0010f05d0034b9a695a6957
:0c1f500012f0010ffad17047008002402f
:020000040000fa
:020000040040ba
:101f5c00094b5b6913f0e00f0dd0074b4ff4807207
:101f6c001a605b6913f0010f05d0034b9a695a692b
:0c1f7c0012f0010ffad170470040024043
:020000040000fa
:020000040040ba
:101f8800094b5b6913f0e00f0dd0074b4ff48072db
:101f98001a605b6913f0010f05d0034b9a695a69ff
:0c1fa80012f0010ffad1704700c0024097
:020000040000fa
:020000040040ba
:101fb4000a4053414d453730205350492d3e554139
:101fc400525420776974682072622e630d000000f9
:0c1fd4005244204641494c0d0a0000bf59
:020000040000fa
:020000040040ba
:101fe000802910db812901dd83290cd11368073397
:101ff00023f0070303f108011160d3e90023c0e9ce
:0a2000000023012070470020704704
:020000040000fa
:020000040040ba
:10200a0038b50569954228bf154604465db12a468a
:10201a00406900f03af8636922692b44551b002293
:08202a00636125611a7038bde5
:020000040000fa
:020000040040ba
:02203200fee7c7
:020000040000fa
:020000040040ba
:1020340010b588b0044690f841200549684600f080
:1020440043f8684600f015f80123237008b010bd6a
:04205400182140000f
:020000040000fa
:020000040040ba
:1020580010b50023934206d113f0030018bf0120e6
:0e20680000eb930010bdc45ccc540133f2e7d2
:020000040000fa
:020000040040ba
:1020760038b5044600f035f8054600f0a2f8002809
:0c208600fbd129462046fef7e2ff38bde2
:020000040000fa
:020000040040ba
:02209200fee767
:020000040000fa
:020000040040ba
:102094005ab110b40a44431e11f8014b03f8014f1e
:0c20a4009142f9d15df8044b7047704781
:020000040000fa
:020000040040ba
:1020b00013b50446019201aafef76af8636813f0ab
:0c20c000100f18bf4ff0ff3002b010bd31
:020000040000fa
:020000040040ba
:1020cc000eb403b503aa52f8041b019200f088f871
:0a20dc0002b05df804eb03b070479a
:020000040000fa
:020000040040ba
:0220e600fee713
:020000040000fa
:020000040040ba
:1020e80003783bb1034600bf13f8012f002afbd148
:0820f800181a704718467047e2
:020000040000fa
:020000040040ba
:1021000068076c094c836a9074a07ac00080688864
:0621100000846c820081d6
:020000040000fa
:020000040040ba
:02211600fee7e2
:020000040000fa
:020000040040ba
:1021180055415254257520525820646f6e650d0a3a
:04212800000000bff4
:020000040000fa
:020000040040ba
:10212c00552140005920400001224000012240006e
:04213c008b1b4000b9
:020000040000fa
:020000040040ba
:1021400032b1c9b20244034603f8011b9342fbd1ea
:04215000704700bf15
:020000040000fa
:020000040040ba
:102154000a440023914201d10020704701f8013b59
:02216400f8e79a
:020000040000fa
:020000040040ba
:02216600fee792
:020000040000fa
:020000040040ba
:10216800014b024a1a607047000c0e40000600043a
:020000040000fa
:020000040040ba
:1021780008b50b46024600210846fef743fc08bd99
:020000040000fa
:020000040040ba
:0e218800a0f14103192b98bf40f020007047d2
:020000040000fa
:020000040040ba
:02219600704790
:020000040000fa
:020000040040ba
:0c219800014b58629962704730014020f2
:020000040000fa
:020000040040ba
:0c21a400014b58629962704760014020b6
:020000040000fa
:020000040040ba
:0c21b000014b586299627047900140207a
:020000040000fa
:020000040040ba
:0c21bc00014b586299627047c00140203e
:020000040000fa
:020000040040ba
:0c21c800014b187d704700bf94004020c0
:020000040000fa
:020000040040ba
:0c21d400014b586299627047c80040201f
:020000040000fa
:020000040040ba
:0c21e000014b586299627047fc004020df
:020000040000fa
:020000040040ba
:0c21ec0013460a466ff00041fff77ebc6e
:020000040000fa
:020000040040ba
:0821f800286e696c2900250026
:020000040000fa
:020000040040ba
:042200000020704703
:020000040000fa
:020000040040ba
:0422040000207047ff
:020000040000fa
:020000040040ba
:0422080000207047fb
:020000040000fa
:020000040040ba
:04220c0000207047f7
:020000040000fa
:020000040040ba
:04221000704700bf54
:020000040000fa
:020000040040ba
:02221400fee7e3
:020000040000fa
:020000040040ba
:0222160070470f
:020000040000fa
:020000040040ba
:0222180070470d
:020000040000fa
:02000004d0002a
:0400000002000000fa
:00000001FF
