:020000040000fa
:020000040040ba
:10000000f0ff452089014000270b40004f0b4000c6
:100010008f0b4000910b4000930b4000000000004c
:10002000000000000000000000000000970b4000ee
:100030008d0b400000000000970b4000970b400024
:10004000970b4000970b4000970b4000970b400028
:10005000970b4000970b4000970b4000970b400018
:10006000970b400000000000970b4000970b4000ea
:10007000970b4000970b4000f1074000970b4000a2
:10008000970b4000970b4000970b4000970b4000e8
:10009000970b400001034000970b4000970b400076
:1000a000970b4000970b4000970b4000970b4000c8
:1000b000970b4000970b4000970b4000970b4000b8
:1000c000970b4000970b4000970b4000970b4000a8
:1000d000970b4000970b4000970b4000970b400098
:1000e000970b4000970b4000970b4000970b400088
:1000f000970b4000970b4000970b4000970b400078
:10010000970b4000970b4000970b4000970b400067
:10011000970b4000000000000000000000000000fd
:10012000970b4000970b4000970b4000970b400047
:10013000970b4000970b400000000000970b400019
:10014000970b4000970b4000970b4000970b400027
:10015000970b4000970b4000970b4000970b400017
:08016000970b4000970b4000d3
:020000040000fa
:020000040040ba
:10016800f8b500bff8bc08bc9e467047950940002a
:10017800f8b500bff8bc08bc9e467047710940003e
:020000040000fa
:020000040040ba
:1001880008b54f4b98474f4b9847eff3108172b61d
:100198004d4ad2f8883043f47003c2f88830bff370
:1001a8004f8fbff36f8f01b962b6484b484a5a6008
:1001b8009a6812f0010ffbd0444bdb6813f4c07f40
:1001c80013d0444b0c221a60404b434a5a609a6839
:1001d80012f0010ffbd03d4b404a5a609a6812f06a
:1001e800010ffbd03e4b3f4a1a60bff34f8fbff35e
:1001f8006f8f354cd4f8903223f00103c4f8903255
:10020800d4f8943223f00103c4f89432bff34f8f2b
:10021800bff36f8f00f004fc334b23f07f03a36020
:10022800324b9847636913f4003f12d1bff34f8fe5
:10023800bff36f8f0022c4f85022bff34f8fbff374
:100248006f8f626942f400326261bff34f8fbff370
:100258006f8f1d4b5b6913f4803f29d11a4b002225
:10026800c3f88420bff34f8fd3f88030c3f3c90697
:10027800c3f34e335a0143f6e075134802ea050406
:10028800334644ea8371c0f86012013bb3f1ff3f83
:10029800f7d1203a12f1200ff0d1bff34f8f0a4a5d
:1002a800536943f480335361bff34f8fbff36f8fac
:1002b8000f4b98470f4b984700f094fbfee700bfa1
:1002c800950b4000950b400000ed00e0000c0e403f
:1002d8000d00005acc0040200c08005a0c07005aa8
:1002e80000180e40010000a500004000150940005c
:0802f800950b4000950b40003e
:020000040000fa
:020000040040ba
:1003000008b54c4b196b01f0f0014b4a52691b695f
:1003100013f0010f0dd0474b9868474bdb689342b1
:1003200005d9002939d1444b5b6898540132424bbe
:100330005a61404b1b6913f0020f1dd03d4b022048
:1003400098613d4b9b69002939d13b4989689942a5
:1003500029d939490968c85c3649c860013336492a
:1003600088680969834201d1002941d03249c968ae
:10037000914241d030498b61304b1b7863b12d4b9a
:100380001b6913f4007f03d02b4bdb68934239d0f9
:10039000284b4ff400725a6108bd274b5b6823f865
:1003a00012000132c3e7244909690029d7d0214945
:1003b000ff20c8602048016901390161cfe71e496b
:1003c0008968994207d91c49096831f8130019490d
:1003d000c8600133c3e7184909690029bfd015492e
:1003e0004ff6ff70c8601448016901390161b6e732
:1003f000124901200870bde70e49012088610220e2
:100400004861b7e70b494ff080730b600a4b00223d
:100410001a7740f20320886108490a701b6a002b92
:10042000bad0054b586a1b6a9847044b1b78002bbf
:10043000aed1b1e70080004084004020d8004020c9
:020000040000fa
:020000040040ba
:1004400030b4464c247f002c40f0858005460029be
:1004500032d0002830d04148056042600024446119
:10046000846104613d488160002a3bd03b4ad360ef
:100470003a4a012111773a4989689168d2688a42db
:1004800003d93648c268521a0261354a126b12f01b
:10049000f00f37d1314a92698a4227d22f4a116828
:1004a00008782f49c860916901319161002b4dd0c6
:1004b00001202b4b58614fe0141c18bf0124002b66
:1004c00014bf20460020002846d024480560426022
:1004d0000024446184610461002dc3d11f4a0021be
:1004e0009160c3e71d4a0021d160c1e71b4a126930
:1004f000002adbd01a4aff21d16018490a69013a63
:100500000a61d3e7154a9168490891601169490861
:100510001161d1684908d160916892698a4208d214
:100520000e4a116808880e49c860916901319161cd
:10053000bce70a4a1269002ab8d0094a4ff6ff718f
:10054000d16006490a69013a0a61afe7044b022209
:100550005a61012000e0002030bc70478400402038
:0405600000800040d7
:020000040000fa
:020000040040ba
:10056400314b0022c3f81421d3f8141141f01001c7
:10057400c3f814112d494ff400134b606ff40013aa
:100584000b604ff0ff334b650b66c1f89030c1f838
:10059400a0300a614b618a63c1f8182101f500712a
:1005a40010200867486748606ff0100008604b65ca
:1005b4000b66c1f89030c1f8a0300a614b618a63c0
:1005c400c1f8182101f500710b604b650b66c1f889
:1005d4009030c1f8a0300a614b618a63c1f81821d8
:1005e40001f500714ff4e00008674a6748606ff452
:1005f400e00008604b650b66c1f89030c1f8a0308c
:100604000a614b618a63c1f8182101f500710b601e
:100614004b650b66c1f89030c1f8a0300a614b619c
:100624008a63c1f81821704700800840000e0e400c
:020000040000fa
:020000040040ba
:10063400002830d010b40446194b1b7d002b2cd15c
:10064400174b1860596000229a6001221a75586885
:100654009b68144a526912f0020f13d0984211d9c0
:1006640010494a6812f4003f14bf34f81320e25cc6
:10067400c2f30802ca6101334a6912f0020f01d0c1
:100684009842eed8064a9360064b02229a600120f3
:100694005df8044b7047002070470020f8e700bf66
:0806a4005000402000800240dc
:020000040000fa
:020000040040ba
:1006ac0038b51a4b1c681d681b7d002b2cd0174bc2
:1006bc0058689b68164a526912f0020f13d0984280
:1006cc0011d913494a6812f4003f14bf35f81320ae
:1006dc00e25cc2f30802ca6101334a6912f0020fec
:1006ec0001d09842eed8094a9360936883420bd3a9
:1006fc00134600221a75064a0221d160db681bb131
:10070c00024b1869db68984738bd00bf5000402089
:04071c000080024017
:020000040000fa
:020000040040ba
:10072000164b174a9a629a6e12f0020ffbd0134ac8
:10073000136b23f07003136313469a6e12f0080fc5
:10074000fbd00e4a136b23f4407343f4807313639e
:1007500013469a6e12f0080ffbd0084a136b23f071
:10076000030343f00203136313469a6e12f0080f5b
:10077000fbd0024b034a1a61704700bf00060e40cf
:08078000013f1820005c23007a
:020000040000fa
:020000040040ba
:1007880070b5174b9d699e6993f82c303bb3144b99
:10079800dc691b6a13494a6912f0010f0dd09c42ab
:1007a8000bd98a69c2f30802486810f4003f14bfe5
:1007b80026f81320ea540133ede7094a1362136a55
:1007c800a3420cd31346002283f82c20054ae121ca
:1007d800d1605b6a1bb1024b986a5b6a984770bd2f
:0807e800500040200080024097
:020000040000fa
:020000040040ba
:1007f00010b5164b5b6913f0e0030fd1134b5b6927
:1008000013f0010f1bd1114b5b6913f0020f04d0e1
:100810000e4b1b6913f0020f14d110bd0c4c236357
:1008200000f034f9094be122da60002384f82c301f
:10083000636a002be2d0a06a636a9847dee7fff79d
:10084000a3ffe0e7fff732ffe7e700bf00800240c9
:0408500050004020f4
:020000040000fa
:020000040040ba
:10085400144bd96821f4e0610904090c124a0a43d3
:10086400da60bff35f8f62b6104ae02182f80e139c
:100874004ff48040106082f815134ff4001111609a
:100884005a6a42f480225a625a6942f010025a614a
:100894005a6a42f400325a625a6a42f480325a6204
:1008a400704700bf00ed00e00000fa0500e100e041
:020000040000fa
:020000040040ba
:1008b400b00040201c00000000000000d8004020d0
:1008c4000100000000000000840040202c00000013
:1008d4000000000050004020340000000000000030
:1008e400cc00402008000000000000000000402070
:1008f4005000000000000000d4004020040000006c
:10090400000000000000000000000000666666664b
:020000040000fa
:020000040040ba
:100914000e4a38b5002313600d4a0e4c13600e4a7c
:100924000e4d13600e4a13600e4a13600e4a536252
:1009340013610123936000f02ef900f02cf9ac420e
:1009440000d338bd54f8043b9847f8e7d40040205e
:100954000c00402074014000080040207801400051
:0c09640000004020040040201000402053
:020000040000fa
:020000040040ba
:1009700010b5054c227832b9044b13b10448aff3db
:1009800000800123237010bdb00040200000000053
:100990000000000008b5034b1bb103490348aff347
:1009a000008008bd00000000b400402000000000ee
:020000040000fa
:020000040040ba
:1009b0000c4b4ff486721a6050221a604ff40c628e
:1009c0005a6051221a62084b00229a61da611a6257
:1009d00083f82c205a621a605a609a601a75da609d
:0c09e0001a637047008002405000402065
:020000040000fa
:020000040040ba
:1009ec0070b5c0b0002000f061f80df1ff320023ab
:1009fc0002f8013f0133b3f5807ff9d1064800f0ce
:100a0c006bf86c4640ae01252946204600f0aaf84a
:0c0a1c000134b442f8d1fee7600b40004a
:020000040000fa
:020000040040ba
:100a280070b50b480b4d4ff6ff76016821b9436846
:100a380013b900f0adf870bd83684268334000f127
:100a48000c0455f823302046984704eb8000ece767
:080a5800b4084000280b400027
:020000040000fa
:020000040040ba
:100a6000074b82221a60074a5a6049f20a621a63e7
:100a7000054a00211177116201221a60704700bff8
:0c0a80000080004011000e0084004020a7
:020000040000fa
:020000040040ba
:100a8c00094b5b6913f0e00f0dd0074b4ff48072ec
:100a9c001a605b6913f0010f05d0034b9a695a6910
:0c0aac0012f0010ffad1704700800240e8
:020000040000fa
:020000040040ba
:100ab80008b500f049f8fff72ffefff74ffd4ff498
:100ac8000043054a5360b03a5360fff7c5fffff78c
:0c0ad8006bfffff7bbfe08bd00190e40cd
:020000040000fa
:020000040040ba
:100ae40038b503786bb10446012529462046fff743
:100af4009ffd00f041f80028fbd114f8013f002bc2
:040b0400f3d138bd34
:020000040000fa
:020000040040ba
:100b080010b50023934206d113f0030018bf01204b
:0e0b180000eb930010bdc45ccc540133f2e737
:020000040000fa
:020000040040ba
:020b2600fee7e8
:020000040000fa
:020000040040ba
:100b28003d0b4000090b4000890b4000890b400039
:040b3800890b4000e5
:020000040000fa
:020000040040ba
:100b3c000a440023914201d10020704701f8013b87
:020b4c00f8e7c8
:020000040000fa
:020000040040ba
:020b4e00fee7c0
:020000040000fa
:020000040040ba
:100b5000014b024a1a607047000c0e400006000468
:020000040000fa
:020000040040ba
:100b60004048656c6c6f20576f726c64210d0a00f1
:020000040000fa
:020000040040ba
:0c0b700008b500231a46fff763fc08bd1f
:020000040000fa
:020000040040ba
:0c0b7c00014b187d704700bf5000402066
:020000040000fa
:020000040040ba
:040b88000020704792
:020000040000fa
:020000040040ba
:020b8c00fee782
:020000040000fa
:020000040040ba
:020b8e00fee780
:020000040000fa
:020000040040ba
:020b9000fee77e
:020000040000fa
:020000040040ba
:020b9200fee77c
:020000040000fa
:020000040040ba
:020b94007047a8
:020000040000fa
:020000040040ba
:020b9600fee778
:020000040000fa
:020000040040ba
:020b98007047a4
:020000040000fa
:020000040040ba
:020b9a007047a2
:020000040000fa
:02000004d0002a
:0400000002000000fa
:00000001FF
